{
  "_format": "hh-sol-artifact-1",
  "contractName": "DeNews",
  "sourceName": "contracts/DeNews.sol",
  "abi": [
    {
      "inputs": [],
      "stateMutability": "nonpayable",
      "type": "constructor"
    },
    {
      "inputs": [
        {
          "internalType": "address",
          "name": "spender",
          "type": "address"
        },
        {
          "internalType": "uint256",
          "name": "allowance",
          "type": "uint256"
        },
        {
          "internalType": "uint256",
          "name": "needed",
          "type": "uint256"
        }
      ],
      "name": "ERC20InsufficientAllowance",
      "type": "error"
    },
    {
      "inputs": [
        {
          "internalType": "address",
          "name": "sender",
          "type": "address"
        },
        {
          "internalType": "uint256",
          "name": "balance",
          "type": "uint256"
        },
        {
          "internalType": "uint256",
          "name": "needed",
          "type": "uint256"
        }
      ],
      "name": "ERC20InsufficientBalance",
      "type": "error"
    },
    {
      "inputs": [
        {
          "internalType": "address",
          "name": "approver",
          "type": "address"
        }
      ],
      "name": "ERC20InvalidApprover",
      "type": "error"
    },
    {
      "inputs": [
        {
          "internalType": "address",
          "name": "receiver",
          "type": "address"
        }
      ],
      "name": "ERC20InvalidReceiver",
      "type": "error"
    },
    {
      "inputs": [
        {
          "internalType": "address",
          "name": "sender",
          "type": "address"
        }
      ],
      "name": "ERC20InvalidSender",
      "type": "error"
    },
    {
      "inputs": [
        {
          "internalType": "address",
          "name": "spender",
          "type": "address"
        }
      ],
      "name": "ERC20InvalidSpender",
      "type": "error"
    },
    {
      "inputs": [
        {
          "internalType": "address",
          "name": "owner",
          "type": "address"
        }
      ],
      "name": "OwnableInvalidOwner",
      "type": "error"
    },
    {
      "inputs": [
        {
          "internalType": "address",
          "name": "account",
          "type": "address"
        }
      ],
      "name": "OwnableUnauthorizedAccount",
      "type": "error"
    },
    {
      "anonymous": false,
      "inputs": [
        {
          "indexed": true,
          "internalType": "address",
          "name": "owner",
          "type": "address"
        },
        {
          "indexed": true,
          "internalType": "address",
          "name": "spender",
          "type": "address"
        },
        {
          "indexed": false,
          "internalType": "uint256",
          "name": "value",
          "type": "uint256"
        }
      ],
      "name": "Approval",
      "type": "event"
    },
    {
      "anonymous": false,
      "inputs": [
        {
          "indexed": true,
          "internalType": "address",
          "name": "journalist",
          "type": "address"
        },
        {
          "indexed": false,
          "internalType": "string",
          "name": "articleTitle",
          "type": "string"
        },
        {
          "indexed": false,
          "internalType": "string",
          "name": "contentHash",
          "type": "string"
        },
        {
          "indexed": false,
          "internalType": "string[]",
          "name": "refImages",
          "type": "string[]"
        }
      ],
      "name": "ArticleCreated",
      "type": "event"
    },
    {
      "anonymous": false,
      "inputs": [
        {
          "indexed": true,
          "internalType": "address",
          "name": "journalist",
          "type": "address"
        },
        {
          "indexed": false,
          "internalType": "string",
          "name": "articleTitle",
          "type": "string"
        },
        {
          "indexed": false,
          "internalType": "string",
          "name": "contentHash",
          "type": "string"
        },
        {
          "indexed": false,
          "internalType": "string[]",
          "name": "refImages",
          "type": "string[]"
        }
      ],
      "name": "ArticleUpdated",
      "type": "event"
    },
    {
      "anonymous": false,
      "inputs": [
        {
          "indexed": true,
          "internalType": "address",
          "name": "previousOwner",
          "type": "address"
        },
        {
          "indexed": true,
          "internalType": "address",
          "name": "newOwner",
          "type": "address"
        }
      ],
      "name": "OwnershipTransferred",
      "type": "event"
    },
    {
      "anonymous": false,
      "inputs": [
        {
          "indexed": true,
          "internalType": "address",
          "name": "user",
          "type": "address"
        },
        {
          "indexed": false,
          "internalType": "uint256",
          "name": "newStake",
          "type": "uint256"
        }
      ],
      "name": "StakeUpdated",
      "type": "event"
    },
    {
      "anonymous": false,
      "inputs": [
        {
          "indexed": true,
          "internalType": "address",
          "name": "buyer",
          "type": "address"
        },
        {
          "indexed": false,
          "internalType": "uint256",
          "name": "amount",
          "type": "uint256"
        },
        {
          "indexed": false,
          "internalType": "uint256",
          "name": "ethPaid",
          "type": "uint256"
        }
      ],
      "name": "TokenPurchased",
      "type": "event"
    },
    {
      "anonymous": false,
      "inputs": [
        {
          "indexed": true,
          "internalType": "address",
          "name": "from",
          "type": "address"
        },
        {
          "indexed": true,
          "internalType": "address",
          "name": "to",
          "type": "address"
        },
        {
          "indexed": false,
          "internalType": "uint256",
          "name": "value",
          "type": "uint256"
        }
      ],
      "name": "Transfer",
      "type": "event"
    },
    {
      "inputs": [],
      "name": "MIN_STAKE",
      "outputs": [
        {
          "internalType": "uint256",
          "name": "",
          "type": "uint256"
        }
      ],
      "stateMutability": "view",
      "type": "function"
    },
    {
      "inputs": [],
      "name": "TOKEN_PRICE",
      "outputs": [
        {
          "internalType": "uint256",
          "name": "",
          "type": "uint256"
        }
      ],
      "stateMutability": "view",
      "type": "function"
    },
    {
      "inputs": [
        {
          "internalType": "address",
          "name": "owner",
          "type": "address"
        },
        {
          "internalType": "address",
          "name": "spender",
          "type": "address"
        }
      ],
      "name": "allowance",
      "outputs": [
        {
          "internalType": "uint256",
          "name": "",
          "type": "uint256"
        }
      ],
      "stateMutability": "view",
      "type": "function"
    },
    {
      "inputs": [
        {
          "internalType": "address",
          "name": "spender",
          "type": "address"
        },
        {
          "internalType": "uint256",
          "name": "value",
          "type": "uint256"
        }
      ],
      "name": "approve",
      "outputs": [
        {
          "internalType": "bool",
          "name": "",
          "type": "bool"
        }
      ],
      "stateMutability": "nonpayable",
      "type": "function"
    },
    {
      "inputs": [
        {
          "internalType": "string",
          "name": "",
          "type": "string"
        }
      ],
      "name": "articles",
      "outputs": [
        {
          "internalType": "address",
          "name": "journalist",
          "type": "address"
        },
        {
          "internalType": "string",
          "name": "articleTitle",
          "type": "string"
        },
        {
          "internalType": "string",
          "name": "contentHash",
          "type": "string"
        },
        {
          "internalType": "bool",
          "name": "verified",
          "type": "bool"
        },
        {
          "internalType": "uint256",
          "name": "realVotes",
          "type": "uint256"
        },
        {
          "internalType": "uint256",
          "name": "fakeVotes",
          "type": "uint256"
        },
        {
          "internalType": "bool",
          "name": "isDeleted",
          "type": "bool"
        }
      ],
      "stateMutability": "view",
      "type": "function"
    },
    {
      "inputs": [
        {
          "internalType": "address",
          "name": "account",
          "type": "address"
        }
      ],
      "name": "balanceOf",
      "outputs": [
        {
          "internalType": "uint256",
          "name": "",
          "type": "uint256"
        }
      ],
      "stateMutability": "view",
      "type": "function"
    },
    {
      "inputs": [],
      "name": "buyToken",
      "outputs": [],
      "stateMutability": "payable",
      "type": "function"
    },
    {
      "inputs": [
        {
          "internalType": "string",
          "name": "",
          "type": "string"
        }
      ],
      "name": "contentHashExists",
      "outputs": [
        {
          "internalType": "bool",
          "name": "",
          "type": "bool"
        }
      ],
      "stateMutability": "view",
      "type": "function"
    },
    {
      "inputs": [],
      "name": "decimals",
      "outputs": [
        {
          "internalType": "uint8",
          "name": "",
          "type": "uint8"
        }
      ],
      "stateMutability": "view",
      "type": "function"
    },
    {
      "inputs": [
        {
          "internalType": "string",
          "name": "_contentHash",
          "type": "string"
        }
      ],
      "name": "doesContentHashExist",
      "outputs": [
        {
          "internalType": "bool",
          "name": "",
          "type": "bool"
        }
      ],
      "stateMutability": "view",
      "type": "function"
    },
    {
      "inputs": [
        {
          "internalType": "address",
          "name": "_journalist",
          "type": "address"
        }
      ],
      "name": "getAllArticlesOfJournalist",
      "outputs": [
        {
          "components": [
            {
              "internalType": "address",
              "name": "journalist",
              "type": "address"
            },
            {
              "internalType": "string",
              "name": "articleTitle",
              "type": "string"
            },
            {
              "internalType": "string",
              "name": "contentHash",
              "type": "string"
            },
            {
              "internalType": "string[]",
              "name": "refImages",
              "type": "string[]"
            },
            {
              "internalType": "bool",
              "name": "verified",
              "type": "bool"
            },
            {
              "internalType": "uint256",
              "name": "realVotes",
              "type": "uint256"
            },
            {
              "internalType": "uint256",
              "name": "fakeVotes",
              "type": "uint256"
            },
            {
              "internalType": "address[]",
              "name": "voters",
              "type": "address[]"
            },
            {
              "internalType": "bool",
              "name": "isDeleted",
              "type": "bool"
            }
          ],
          "internalType": "struct DeNews.Article[]",
          "name": "",
          "type": "tuple[]"
        }
      ],
      "stateMutability": "view",
      "type": "function"
    },
    {
      "inputs": [],
      "name": "getAllStakers",
      "outputs": [
        {
          "internalType": "address[]",
          "name": "",
          "type": "address[]"
        }
      ],
      "stateMutability": "view",
      "type": "function"
    },
    {
      "inputs": [
        {
          "internalType": "string",
          "name": "_contentHash",
          "type": "string"
        }
      ],
      "name": "getArticle",
      "outputs": [
        {
          "components": [
            {
              "internalType": "address",
              "name": "journalist",
              "type": "address"
            },
            {
              "internalType": "string",
              "name": "articleTitle",
              "type": "string"
            },
            {
              "internalType": "string",
              "name": "contentHash",
              "type": "string"
            },
            {
              "internalType": "string[]",
              "name": "refImages",
              "type": "string[]"
            },
            {
              "internalType": "bool",
              "name": "verified",
              "type": "bool"
            },
            {
              "internalType": "uint256",
              "name": "realVotes",
              "type": "uint256"
            },
            {
              "internalType": "uint256",
              "name": "fakeVotes",
              "type": "uint256"
            },
            {
              "internalType": "address[]",
              "name": "voters",
              "type": "address[]"
            },
            {
              "internalType": "bool",
              "name": "isDeleted",
              "type": "bool"
            }
          ],
          "internalType": "struct DeNews.Article",
          "name": "",
          "type": "tuple"
        }
      ],
      "stateMutability": "view",
      "type": "function"
    },
    {
      "inputs": [],
      "name": "getContractBalance",
      "outputs": [
        {
          "internalType": "uint256",
          "name": "",
          "type": "uint256"
        }
      ],
      "stateMutability": "view",
      "type": "function"
    },
    {
      "inputs": [
        {
          "internalType": "address",
          "name": "_journalist",
          "type": "address"
        }
      ],
      "name": "getJournalistArticleCount",
      "outputs": [
        {
          "internalType": "uint256",
          "name": "",
          "type": "uint256"
        }
      ],
      "stateMutability": "view",
      "type": "function"
    },
    {
      "inputs": [
        {
          "internalType": "address",
          "name": "_user",
          "type": "address"
        }
      ],
      "name": "getStakeBalance",
      "outputs": [
        {
          "internalType": "uint256",
          "name": "",
          "type": "uint256"
        }
      ],
      "stateMutability": "view",
      "type": "function"
    },
    {
      "inputs": [],
      "name": "getTokenPrice",
      "outputs": [
        {
          "internalType": "uint256",
          "name": "",
          "type": "uint256"
        }
      ],
      "stateMutability": "pure",
      "type": "function"
    },
    {
      "inputs": [
        {
          "internalType": "address",
          "name": "_user",
          "type": "address"
        }
      ],
      "name": "getUserDetails",
      "outputs": [
        {
          "components": [
            {
              "internalType": "address",
              "name": "userAddress",
              "type": "address"
            },
            {
              "internalType": "uint256",
              "name": "stake",
              "type": "uint256"
            }
          ],
          "internalType": "struct DeNews.UserStake",
          "name": "",
          "type": "tuple"
        }
      ],
      "stateMutability": "view",
      "type": "function"
    },
    {
      "inputs": [
        {
          "internalType": "address",
          "name": "",
          "type": "address"
        },
        {
          "internalType": "uint256",
          "name": "",
          "type": "uint256"
        }
      ],
      "name": "journalistArticles",
      "outputs": [
        {
          "internalType": "string",
          "name": "",
          "type": "string"
        }
      ],
      "stateMutability": "view",
      "type": "function"
    },
    {
      "inputs": [],
      "name": "name",
      "outputs": [
        {
          "internalType": "string",
          "name": "",
          "type": "string"
        }
      ],
      "stateMutability": "view",
      "type": "function"
    },
    {
      "inputs": [],
      "name": "owner",
      "outputs": [
        {
          "internalType": "address",
          "name": "",
          "type": "address"
        }
      ],
      "stateMutability": "view",
      "type": "function"
    },
    {
      "inputs": [],
      "name": "renounceOwnership",
      "outputs": [],
      "stateMutability": "nonpayable",
      "type": "function"
    },
    {
      "inputs": [
        {
          "internalType": "uint256",
          "name": "",
          "type": "uint256"
        }
      ],
      "name": "stakers",
      "outputs": [
        {
          "internalType": "address",
          "name": "",
          "type": "address"
        }
      ],
      "stateMutability": "view",
      "type": "function"
    },
    {
      "inputs": [
        {
          "internalType": "address",
          "name": "",
          "type": "address"
        }
      ],
      "name": "stakes",
      "outputs": [
        {
          "internalType": "uint256",
          "name": "",
          "type": "uint256"
        }
      ],
      "stateMutability": "view",
      "type": "function"
    },
    {
      "inputs": [],
      "name": "symbol",
      "outputs": [
        {
          "internalType": "string",
          "name": "",
          "type": "string"
        }
      ],
      "stateMutability": "view",
      "type": "function"
    },
    {
      "inputs": [],
      "name": "totalSupply",
      "outputs": [
        {
          "internalType": "uint256",
          "name": "",
          "type": "uint256"
        }
      ],
      "stateMutability": "view",
      "type": "function"
    },
    {
      "inputs": [
        {
          "internalType": "address",
          "name": "to",
          "type": "address"
        },
        {
          "internalType": "uint256",
          "name": "value",
          "type": "uint256"
        }
      ],
      "name": "transfer",
      "outputs": [
        {
          "internalType": "bool",
          "name": "",
          "type": "bool"
        }
      ],
      "stateMutability": "nonpayable",
      "type": "function"
    },
    {
      "inputs": [
        {
          "internalType": "address",
          "name": "from",
          "type": "address"
        },
        {
          "internalType": "address",
          "name": "to",
          "type": "address"
        },
        {
          "internalType": "uint256",
          "name": "value",
          "type": "uint256"
        }
      ],
      "name": "transferFrom",
      "outputs": [
        {
          "internalType": "bool",
          "name": "",
          "type": "bool"
        }
      ],
      "stateMutability": "nonpayable",
      "type": "function"
    },
    {
      "inputs": [
        {
          "internalType": "address",
          "name": "newOwner",
          "type": "address"
        }
      ],
      "name": "transferOwnership",
      "outputs": [],
      "stateMutability": "nonpayable",
      "type": "function"
    },
    {
      "inputs": [
        {
          "internalType": "string",
          "name": "_articleTitle",
          "type": "string"
        },
        {
          "internalType": "string",
          "name": "_contentHash",
          "type": "string"
        },
        {
          "internalType": "string[]",
          "name": "_refImages",
          "type": "string[]"
        },
        {
          "internalType": "bool",
          "name": "_verified",
          "type": "bool"
        },
        {
          "internalType": "uint256",
          "name": "_realVotes",
          "type": "uint256"
        },
        {
          "internalType": "uint256",
          "name": "_fakeVotes",
          "type": "uint256"
        },
        {
          "internalType": "address[]",
          "name": "_voters",
          "type": "address[]"
        },
        {
          "internalType": "bool",
          "name": "_isDeleted",
          "type": "bool"
        }
      ],
      "name": "updateArticle",
      "outputs": [],
      "stateMutability": "nonpayable",
      "type": "function"
    },
    {
      "inputs": [],
      "name": "withdrawETH",
      "outputs": [],
      "stateMutability": "nonpayable",
      "type": "function"
    }
  ],
  "bytecode": "0x608060405234801561001057600080fd5b50336040518060400160405280600c81526020017f44654e65777320546f6b656e00000000000000000000000000000000000000008152506040518060400160405280600381526020017f444e540000000000000000000000000000000000000000000000000000000000815250816003908161008d9190610704565b50806004908161009d9190610704565b505050600073ffffffffffffffffffffffffffffffffffffffff168173ffffffffffffffffffffffffffffffffffffffff16036101125760006040517f1e4fbdf70000000000000000000000000000000000000000000000000000000081526004016101099190610817565b60405180910390fd5b6101218161014160201b60201c565b5061013c3069d3c21bcecceda100000061020760201b60201c565b6108f6565b6000600560009054906101000a900473ffffffffffffffffffffffffffffffffffffffff16905081600560006101000a81548173ffffffffffffffffffffffffffffffffffffffff021916908373ffffffffffffffffffffffffffffffffffffffff1602179055508173ffffffffffffffffffffffffffffffffffffffff168173ffffffffffffffffffffffffffffffffffffffff167f8be0079c531659141344cd1fd0a4f28419497f9722a3daafe3b4186f6b6457e060405160405180910390a35050565b600073ffffffffffffffffffffffffffffffffffffffff168273ffffffffffffffffffffffffffffffffffffffff16036102795760006040517fec442f050000000000000000000000000000000000000000000000000000000081526004016102709190610817565b60405180910390fd5b61028b6000838361028f60201b60201c565b5050565b600073ffffffffffffffffffffffffffffffffffffffff168373ffffffffffffffffffffffffffffffffffffffff16036102e15780600260008282546102d59190610861565b925050819055506103b4565b60008060008573ffffffffffffffffffffffffffffffffffffffff1673ffffffffffffffffffffffffffffffffffffffff1681526020019081526020016000205490508181101561036d578381836040517fe450d38c000000000000000000000000000000000000000000000000000000008152600401610364939291906108a4565b60405180910390fd5b8181036000808673ffffffffffffffffffffffffffffffffffffffff1673ffffffffffffffffffffffffffffffffffffffff16815260200190815260200160002081905550505b600073ffffffffffffffffffffffffffffffffffffffff168273ffffffffffffffffffffffffffffffffffffffff16036103fd578060026000828254039250508190555061044a565b806000808473ffffffffffffffffffffffffffffffffffffffff1673ffffffffffffffffffffffffffffffffffffffff168152602001908152602001600020600082825401925050819055505b8173ffffffffffffffffffffffffffffffffffffffff168373ffffffffffffffffffffffffffffffffffffffff167fddf252ad1be2c89b69c2b068fc378daa952ba7f163c4a11628f55a4df523b3ef836040516104a791906108db565b60405180910390a3505050565b600081519050919050565b7f4e487b7100000000000000000000000000000000000000000000000000000000600052604160045260246000fd5b7f4e487b7100000000000000000000000000000000000000000000000000000000600052602260045260246000fd5b6000600282049050600182168061053557607f821691505b602082108103610548576105476104ee565b5b50919050565b60008190508160005260206000209050919050565b60006020601f8301049050919050565b600082821b905092915050565b6000600883026105b07fffffffffffffffffffffffffffffffffffffffffffffffffffffffffffffffff82610573565b6105ba8683610573565b95508019841693508086168417925050509392505050565b6000819050919050565b6000819050919050565b60006106016105fc6105f7846105d2565b6105dc565b6105d2565b9050919050565b6000819050919050565b61061b836105e6565b61062f61062782610608565b848454610580565b825550505050565b600090565b610644610637565b61064f818484610612565b505050565b5b818110156106735761066860008261063c565b600181019050610655565b5050565b601f8211156106b8576106898161054e565b61069284610563565b810160208510156106a1578190505b6106b56106ad85610563565b830182610654565b50505b505050565b600082821c905092915050565b60006106db600019846008026106bd565b1980831691505092915050565b60006106f483836106ca565b9150826002028217905092915050565b61070d826104b4565b67ffffffffffffffff811115610726576107256104bf565b5b610730825461051d565b61073b828285610677565b600060209050601f83116001811461076e576000841561075c578287015190505b61076685826106e8565b8655506107ce565b601f19841661077c8661054e565b60005b828110156107a45784890151825560018201915060208501945060208101905061077f565b868310156107c157848901516107bd601f8916826106ca565b8355505b6001600288020188555050505b505050505050565b600073ffffffffffffffffffffffffffffffffffffffff82169050919050565b6000610801826107d6565b9050919050565b610811816107f6565b82525050565b600060208201905061082c6000830184610808565b92915050565b7f4e487b7100000000000000000000000000000000000000000000000000000000600052601160045260246000fd5b600061086c826105d2565b9150610877836105d2565b925082820190508082111561088f5761088e610832565b5b92915050565b61089e816105d2565b82525050565b60006060820190506108b96000830186610808565b6108c66020830185610895565b6108d36040830184610895565b949350505050565b60006020820190506108f06000830184610895565b92915050565b613d7e806109056000396000f3fe6080604052600436106101d85760003560e01c806387ba55c411610102578063cb1c2b5c11610095578063e086e5ec11610064578063e086e5ec14610731578063ef86977314610748578063f2fde38b14610785578063fd5e6dd1146107ae576101d8565b8063cb1c2b5c14610661578063cc3d967b1461068c578063d2d8cb67146106c9578063dd62ed3e146106f4576101d8565b8063a4666665116100d1578063a4666665146105b4578063a4821719146105f1578063a9059cbb146105fb578063ae6f1c2514610638576101d8565b806387ba55c4146104e457806389a0191a146105215780638da5cb5b1461055e57806395d89b4114610589576101d8565b80634b94f50e1161017a5780636f9fb98a116101495780636f9fb98a1461042257806370a082311461044d578063715018a61461048a5780637c702b8d146104a1576101d8565b80634b94f50e146103525780634e41795b1461037d57806368dfb7fb146103ba5780636e4f88c8146103f7576101d8565b806318160ddd116101b657806318160ddd1461028257806323b872dd146102ad578063313ce567146102ea5780633dcedc9d14610315576101d8565b806306fdde03146101dd578063095ea7b31461020857806316934fc414610245575b600080fd5b3480156101e957600080fd5b506101f26107eb565b6040516101ff91906129b0565b60405180910390f35b34801561021457600080fd5b5061022f600480360381019061022a9190612a7a565b61087d565b60405161023c9190612ad5565b60405180910390f35b34801561025157600080fd5b5061026c60048036038101906102679190612af0565b6108a0565b6040516102799190612b2c565b60405180910390f35b34801561028e57600080fd5b506102976108b8565b6040516102a49190612b2c565b60405180910390f35b3480156102b957600080fd5b506102d460048036038101906102cf9190612b47565b6108c2565b6040516102e19190612ad5565b60405180910390f35b3480156102f657600080fd5b506102ff6108f1565b60405161030c9190612bb6565b60405180910390f35b34801561032157600080fd5b5061033c60048036038101906103379190612d06565b6108fa565b6040516103499190612ad5565b60405180910390f35b34801561035e57600080fd5b5061036761092f565b6040516103749190612b2c565b60405180910390f35b34801561038957600080fd5b506103a4600480360381019061039f9190612af0565b61093e565b6040516103b19190612b2c565b60405180910390f35b3480156103c657600080fd5b506103e160048036038101906103dc9190612af0565b61098a565b6040516103ee91906130d3565b60405180910390f35b34801561040357600080fd5b5061040c610ea9565b6040516104199190613164565b60405180910390f35b34801561042e57600080fd5b50610437610f37565b6040516104449190612b2c565b60405180910390f35b34801561045957600080fd5b50610474600480360381019061046f9190612af0565b610f3f565b6040516104819190612b2c565b60405180910390f35b34801561049657600080fd5b5061049f610f87565b005b3480156104ad57600080fd5b506104c860048036038101906104c39190612d06565b610f9b565b6040516104db9796959493929190613195565b60405180910390f35b3480156104f057600080fd5b5061050b60048036038101906105069190612a7a565b61113d565b60405161051891906129b0565b60405180910390f35b34801561052d57600080fd5b5061054860048036038101906105439190612d06565b6111f6565b6040516105559190612ad5565b60405180910390f35b34801561056a57600080fd5b5061057361122c565b6040516105809190613212565b60405180910390f35b34801561059557600080fd5b5061059e611256565b6040516105ab91906129b0565b60405180910390f35b3480156105c057600080fd5b506105db60048036038101906105d69190612d06565b6112e8565b6040516105e89190613307565b60405180910390f35b6105f96116b7565b005b34801561060757600080fd5b50610622600480360381019061061d9190612a7a565b6119ae565b60405161062f9190612ad5565b60405180910390f35b34801561064457600080fd5b5061065f600480360381019061065a91906134fe565b6119d1565b005b34801561066d57600080fd5b50610676611dbe565b6040516106839190612b2c565b60405180910390f35b34801561069857600080fd5b506106b360048036038101906106ae9190612af0565b611dc9565b6040516106c09190613653565b60405180910390f35b3480156106d557600080fd5b506106de611e42565b6040516106eb9190612b2c565b60405180910390f35b34801561070057600080fd5b5061071b6004803603810190610716919061366e565b611e4d565b6040516107289190612b2c565b60405180910390f35b34801561073d57600080fd5b50610746611ed4565b005b34801561075457600080fd5b5061076f600480360381019061076a9190612af0565b611f2c565b60405161077c9190612b2c565b60405180910390f35b34801561079157600080fd5b506107ac60048036038101906107a79190612af0565b611f75565b005b3480156107ba57600080fd5b506107d560048036038101906107d091906136ae565b611ffb565b6040516107e29190613212565b60405180910390f35b6060600380546107fa9061370a565b80601f01602080910402602001604051908101604052809291908181526020018280546108269061370a565b80156108735780601f1061084857610100808354040283529160200191610873565b820191906000526020600020905b81548152906001019060200180831161085657829003601f168201915b5050505050905090565b60008061088861203a565b9050610895818585612042565b600191505092915050565b60066020528060005260406000206000915090505481565b6000600254905090565b6000806108cd61203a565b90506108da858285612054565b6108e58585856120e9565b60019150509392505050565b60006012905090565b6000600a8260405161090c9190613777565b908152602001604051809103902060009054906101000a900460ff169050919050565b6000660110d9316ec000905090565b6000600960008373ffffffffffffffffffffffffffffffffffffffff1673ffffffffffffffffffffffffffffffffffffffff168152602001908152602001600020805490509050919050565b60606000600960008473ffffffffffffffffffffffffffffffffffffffff1673ffffffffffffffffffffffffffffffffffffffff168152602001908152602001600020805480602002602001604051908101604052809291908181526020016000905b82821015610a99578382906000526020600020018054610a0c9061370a565b80601f0160208091040260200160405190810160405280929190818152602001828054610a389061370a565b8015610a855780601f10610a5a57610100808354040283529160200191610a85565b820191906000526020600020905b815481529060010190602001808311610a6857829003601f168201915b5050505050815260200190600101906109ed565b5050505090506000815167ffffffffffffffff811115610abc57610abb612bdb565b5b604051908082528060200260200182016040528015610af557816020015b610ae2612726565b815260200190600190039081610ada5790505b50905060005b8251811015610e9e576008838281518110610b1957610b1861378e565b5b6020026020010151604051610b2e9190613777565b9081526020016040518091039020604051806101200160405290816000820160009054906101000a900473ffffffffffffffffffffffffffffffffffffffff1673ffffffffffffffffffffffffffffffffffffffff1673ffffffffffffffffffffffffffffffffffffffff168152602001600182018054610bae9061370a565b80601f0160208091040260200160405190810160405280929190818152602001828054610bda9061370a565b8015610c275780601f10610bfc57610100808354040283529160200191610c27565b820191906000526020600020905b815481529060010190602001808311610c0a57829003601f168201915b50505050508152602001600282018054610c409061370a565b80601f0160208091040260200160405190810160405280929190818152602001828054610c6c9061370a565b8015610cb95780601f10610c8e57610100808354040283529160200191610cb9565b820191906000526020600020905b815481529060010190602001808311610c9c57829003601f168201915b5050505050815260200160038201805480602002602001604051908101604052809291908181526020016000905b82821015610d93578382906000526020600020018054610d069061370a565b80601f0160208091040260200160405190810160405280929190818152602001828054610d329061370a565b8015610d7f5780601f10610d5457610100808354040283529160200191610d7f565b820191906000526020600020905b815481529060010190602001808311610d6257829003601f168201915b505050505081526020019060010190610ce7565b5050505081526020016004820160009054906101000a900460ff16151515158152602001600582015481526020016006820154815260200160078201805480602002602001604051908101604052809291908181526020018280548015610e4f57602002820191906000526020600020905b8160009054906101000a900473ffffffffffffffffffffffffffffffffffffffff1673ffffffffffffffffffffffffffffffffffffffff1681526020019060010190808311610e05575b505050505081526020016008820160009054906101000a900460ff161515151581525050828281518110610e8657610e8561378e565b5b60200260200101819052508080600101915050610afb565b508092505050919050565b60606007805480602002602001604051908101604052809291908181526020018280548015610f2d57602002820191906000526020600020905b8160009054906101000a900473ffffffffffffffffffffffffffffffffffffffff1673ffffffffffffffffffffffffffffffffffffffff1681526020019060010190808311610ee3575b5050505050905090565b600047905090565b60008060008373ffffffffffffffffffffffffffffffffffffffff1673ffffffffffffffffffffffffffffffffffffffff168152602001908152602001600020549050919050565b610f8f6121dd565b610f996000612264565b565b6008818051602081018201805184825260208301602085012081835280955050505050506000915090508060000160009054906101000a900473ffffffffffffffffffffffffffffffffffffffff1690806001018054610ffa9061370a565b80601f01602080910402602001604051908101604052809291908181526020018280546110269061370a565b80156110735780601f1061104857610100808354040283529160200191611073565b820191906000526020600020905b81548152906001019060200180831161105657829003601f168201915b5050505050908060020180546110889061370a565b80601f01602080910402602001604051908101604052809291908181526020018280546110b49061370a565b80156111015780601f106110d657610100808354040283529160200191611101565b820191906000526020600020905b8154815290600101906020018083116110e457829003601f168201915b5050505050908060040160009054906101000a900460ff16908060050154908060060154908060080160009054906101000a900460ff16905087565b6009602052816000526040600020818154811061115957600080fd5b906000526020600020016000915091505080546111759061370a565b80601f01602080910402602001604051908101604052809291908181526020018280546111a19061370a565b80156111ee5780601f106111c3576101008083540402835291602001916111ee565b820191906000526020600020905b8154815290600101906020018083116111d157829003601f168201915b505050505081565b600a818051602081018201805184825260208301602085012081835280955050505050506000915054906101000a900460ff1681565b6000600560009054906101000a900473ffffffffffffffffffffffffffffffffffffffff16905090565b6060600480546112659061370a565b80601f01602080910402602001604051908101604052809291908181526020018280546112919061370a565b80156112de5780601f106112b3576101008083540402835291602001916112de565b820191906000526020600020905b8154815290600101906020018083116112c157829003601f168201915b5050505050905090565b6112f0612726565b600a826040516113009190613777565b908152602001604051809103902060009054906101000a900460ff1661135b576040517f08c379a000000000000000000000000000000000000000000000000000000000815260040161135290613809565b60405180910390fd5b60088260405161136b9190613777565b9081526020016040518091039020604051806101200160405290816000820160009054906101000a900473ffffffffffffffffffffffffffffffffffffffff1673ffffffffffffffffffffffffffffffffffffffff1673ffffffffffffffffffffffffffffffffffffffff1681526020016001820180546113eb9061370a565b80601f01602080910402602001604051908101604052809291908181526020018280546114179061370a565b80156114645780601f1061143957610100808354040283529160200191611464565b820191906000526020600020905b81548152906001019060200180831161144757829003601f168201915b5050505050815260200160028201805461147d9061370a565b80601f01602080910402602001604051908101604052809291908181526020018280546114a99061370a565b80156114f65780601f106114cb576101008083540402835291602001916114f6565b820191906000526020600020905b8154815290600101906020018083116114d957829003601f168201915b5050505050815260200160038201805480602002602001604051908101604052809291908181526020016000905b828210156115d05783829060005260206000200180546115439061370a565b80601f016020809104026020016040519081016040528092919081815260200182805461156f9061370a565b80156115bc5780601f10611591576101008083540402835291602001916115bc565b820191906000526020600020905b81548152906001019060200180831161159f57829003601f168201915b505050505081526020019060010190611524565b5050505081526020016004820160009054906101000a900460ff1615151515815260200160058201548152602001600682015481526020016007820180548060200260200160405190810160405280929190818152602001828054801561168c57602002820191906000526020600020905b8160009054906101000a900473ffffffffffffffffffffffffffffffffffffffff1673ffffffffffffffffffffffffffffffffffffffff1681526020019060010190808311611642575b505050505081526020016008820160009054906101000a900460ff1615151515815250509050919050565b660110d9316ec000341015611701576040517f08c379a00000000000000000000000000000000000000000000000000000000081526004016116f890613875565b60405180910390fd5b6000670de0b6b3a764000090508061171830610f3f565b1015611759576040517f08c379a0000000000000000000000000000000000000000000000000000000008152600401611750906138e1565b60405180910390fd5b6117643033836120e9565b6000600660003373ffffffffffffffffffffffffffffffffffffffff1673ffffffffffffffffffffffffffffffffffffffff168152602001908152602001600020540361180f576007339080600181540180825580915050600190039060005260206000200160009091909190916101000a81548173ffffffffffffffffffffffffffffffffffffffff021916908373ffffffffffffffffffffffffffffffffffffffff1602179055505b80600660003373ffffffffffffffffffffffffffffffffffffffff1673ffffffffffffffffffffffffffffffffffffffff168152602001908152602001600020600082825461185e9190613930565b92505081905550660110d9316ec0003411156118ce573373ffffffffffffffffffffffffffffffffffffffff166108fc660110d9316ec000346118a19190613964565b9081150290604051600060405180830381858888f193505050501580156118cc573d6000803e3d6000fd5b505b3373ffffffffffffffffffffffffffffffffffffffff167f3ceffd410054fdaed44f598ff5c1fb450658778e2241892da4aa646979dee6178234604051611916929190613998565b60405180910390a23373ffffffffffffffffffffffffffffffffffffffff167fab0e25dc39626189cfb41155020ba89e726b10244275733e9d7c63cf33ffccdb600660003373ffffffffffffffffffffffffffffffffffffffff1673ffffffffffffffffffffffffffffffffffffffff168152602001908152602001600020546040516119a39190612b2c565b60405180910390a250565b6000806119b961203a565b90506119c68185856120e9565b600191505092915050565b600a876040516119e19190613777565b908152602001604051809103902060009054906101000a900460ff1615611bb25787600888604051611a139190613777565b90815260200160405180910390206001019081611a309190613b6d565b5085600888604051611a429190613777565b90815260200160405180910390206003019080519060200190611a6692919061278c565b5084600888604051611a789190613777565b908152602001604051809103902060040160006101000a81548160ff02191690831515021790555083600888604051611ab19190613777565b90815260200160405180910390206005018190555082600888604051611ad79190613777565b90815260200160405180910390206006018190555081600888604051611afd9190613777565b90815260200160405180910390206007019080519060200190611b219291906127e5565b5080600888604051611b339190613777565b908152602001604051809103902060080160006101000a81548160ff0219169083151502179055503373ffffffffffffffffffffffffffffffffffffffff167f5090cf75db34647cad02f0f0308ab6100ecc8fcdfe1223f26d734500364a2a9f898989604051611ba593929190613cc5565b60405180910390a2611db4565b6000600888604051611bc49190613777565b90815260200160405180910390209050338160000160006101000a81548173ffffffffffffffffffffffffffffffffffffffff021916908373ffffffffffffffffffffffffffffffffffffffff16021790555088816001019081611c289190613b6d565b5087816002019081611c3a9190613b6d565b5086816003019080519060200190611c5392919061278c565b50858160040160006101000a81548160ff02191690831515021790555084816005018190555083816006018190555082816007019080519060200190611c9a9291906127e5565b50818160080160006101000a81548160ff0219169083151502179055506001600a89604051611cc99190613777565b908152602001604051809103902060006101000a81548160ff021916908315150217905550600960003373ffffffffffffffffffffffffffffffffffffffff1673ffffffffffffffffffffffffffffffffffffffff16815260200190815260200160002088908060018154018082558091505060019003906000526020600020016000909190919091509081611d5f9190613b6d565b503373ffffffffffffffffffffffffffffffffffffffff167faf7c664d8fc5372dcbf001f63d0c15c7f7f8cdce51621f7b65193ba76b7603e58a8a8a604051611daa93929190613cc5565b60405180910390a2505b5050505050505050565b660110d9316ec00081565b611dd161286f565b60405180604001604052808373ffffffffffffffffffffffffffffffffffffffff168152602001600660008573ffffffffffffffffffffffffffffffffffffffff1673ffffffffffffffffffffffffffffffffffffffff168152602001908152602001600020548152509050919050565b660110d9316ec00081565b6000600160008473ffffffffffffffffffffffffffffffffffffffff1673ffffffffffffffffffffffffffffffffffffffff16815260200190815260200160002060008373ffffffffffffffffffffffffffffffffffffffff1673ffffffffffffffffffffffffffffffffffffffff16815260200190815260200160002054905092915050565b611edc6121dd565b611ee461122c565b73ffffffffffffffffffffffffffffffffffffffff166108fc479081150290604051600060405180830381858888f19350505050158015611f29573d6000803e3d6000fd5b50565b6000600660008373ffffffffffffffffffffffffffffffffffffffff1673ffffffffffffffffffffffffffffffffffffffff168152602001908152602001600020549050919050565b611f7d6121dd565b600073ffffffffffffffffffffffffffffffffffffffff168173ffffffffffffffffffffffffffffffffffffffff1603611fef5760006040517f1e4fbdf7000000000000000000000000000000000000000000000000000000008152600401611fe69190613212565b60405180910390fd5b611ff881612264565b50565b6007818154811061200b57600080fd5b906000526020600020016000915054906101000a900473ffffffffffffffffffffffffffffffffffffffff1681565b600033905090565b61204f838383600161232a565b505050565b60006120608484611e4d565b90507fffffffffffffffffffffffffffffffffffffffffffffffffffffffffffffffff8110156120e357818110156120d3578281836040517ffb8f41b20000000000000000000000000000000000000000000000000000000081526004016120ca93929190613d11565b60405180910390fd5b6120e28484848403600061232a565b5b50505050565b600073ffffffffffffffffffffffffffffffffffffffff168373ffffffffffffffffffffffffffffffffffffffff160361215b5760006040517f96c6fd1e0000000000000000000000000000000000000000000000000000000081526004016121529190613212565b60405180910390fd5b600073ffffffffffffffffffffffffffffffffffffffff168273ffffffffffffffffffffffffffffffffffffffff16036121cd5760006040517fec442f050000000000000000000000000000000000000000000000000000000081526004016121c49190613212565b60405180910390fd5b6121d8838383612501565b505050565b6121e561203a565b73ffffffffffffffffffffffffffffffffffffffff1661220361122c565b73ffffffffffffffffffffffffffffffffffffffff16146122625761222661203a565b6040517f118cdaa70000000000000000000000000000000000000000000000000000000081526004016122599190613212565b60405180910390fd5b565b6000600560009054906101000a900473ffffffffffffffffffffffffffffffffffffffff16905081600560006101000a81548173ffffffffffffffffffffffffffffffffffffffff021916908373ffffffffffffffffffffffffffffffffffffffff1602179055508173ffffffffffffffffffffffffffffffffffffffff168173ffffffffffffffffffffffffffffffffffffffff167f8be0079c531659141344cd1fd0a4f28419497f9722a3daafe3b4186f6b6457e060405160405180910390a35050565b600073ffffffffffffffffffffffffffffffffffffffff168473ffffffffffffffffffffffffffffffffffffffff160361239c5760006040517fe602df050000000000000000000000000000000000000000000000000000000081526004016123939190613212565b60405180910390fd5b600073ffffffffffffffffffffffffffffffffffffffff168373ffffffffffffffffffffffffffffffffffffffff160361240e5760006040517f94280d620000000000000000000000000000000000000000000000000000000081526004016124059190613212565b60405180910390fd5b81600160008673ffffffffffffffffffffffffffffffffffffffff1673ffffffffffffffffffffffffffffffffffffffff16815260200190815260200160002060008573ffffffffffffffffffffffffffffffffffffffff1673ffffffffffffffffffffffffffffffffffffffff1681526020019081526020016000208190555080156124fb578273ffffffffffffffffffffffffffffffffffffffff168473ffffffffffffffffffffffffffffffffffffffff167f8c5be1e5ebec7d5bd14f71427d1e84f3dd0314c0f7b2291e5b200ac8c7c3b925846040516124f29190612b2c565b60405180910390a35b50505050565b600073ffffffffffffffffffffffffffffffffffffffff168373ffffffffffffffffffffffffffffffffffffffff16036125535780600260008282546125479190613930565b92505081905550612626565b60008060008573ffffffffffffffffffffffffffffffffffffffff1673ffffffffffffffffffffffffffffffffffffffff168152602001908152602001600020549050818110156125df578381836040517fe450d38c0000000000000000000000000000000000000000000000000000000081526004016125d693929190613d11565b60405180910390fd5b8181036000808673ffffffffffffffffffffffffffffffffffffffff1673ffffffffffffffffffffffffffffffffffffffff16815260200190815260200160002081905550505b600073ffffffffffffffffffffffffffffffffffffffff168273ffffffffffffffffffffffffffffffffffffffff160361266f57806002600082825403925050819055506126bc565b806000808473ffffffffffffffffffffffffffffffffffffffff1673ffffffffffffffffffffffffffffffffffffffff168152602001908152602001600020600082825401925050819055505b8173ffffffffffffffffffffffffffffffffffffffff168373ffffffffffffffffffffffffffffffffffffffff167fddf252ad1be2c89b69c2b068fc378daa952ba7f163c4a11628f55a4df523b3ef836040516127199190612b2c565b60405180910390a3505050565b604051806101200160405280600073ffffffffffffffffffffffffffffffffffffffff1681526020016060815260200160608152602001606081526020016000151581526020016000815260200160008152602001606081526020016000151581525090565b8280548282559060005260206000209081019282156127d4579160200282015b828111156127d35782518290816127c39190613b6d565b50916020019190600101906127ac565b5b5090506127e1919061289f565b5090565b82805482825590600052602060002090810192821561285e579160200282015b8281111561285d5782518260006101000a81548173ffffffffffffffffffffffffffffffffffffffff021916908373ffffffffffffffffffffffffffffffffffffffff16021790555091602001919060010190612805565b5b50905061286b91906128c3565b5090565b6040518060400160405280600073ffffffffffffffffffffffffffffffffffffffff168152602001600081525090565b5b808211156128bf57600081816128b691906128e0565b506001016128a0565b5090565b5b808211156128dc5760008160009055506001016128c4565b5090565b5080546128ec9061370a565b6000825580601f106128fe575061291d565b601f01602090049060005260206000209081019061291c91906128c3565b5b50565b600081519050919050565b600082825260208201905092915050565b60005b8381101561295a57808201518184015260208101905061293f565b60008484015250505050565b6000601f19601f8301169050919050565b600061298282612920565b61298c818561292b565b935061299c81856020860161293c565b6129a581612966565b840191505092915050565b600060208201905081810360008301526129ca8184612977565b905092915050565b6000604051905090565b600080fd5b600080fd5b600073ffffffffffffffffffffffffffffffffffffffff82169050919050565b6000612a11826129e6565b9050919050565b612a2181612a06565b8114612a2c57600080fd5b50565b600081359050612a3e81612a18565b92915050565b6000819050919050565b612a5781612a44565b8114612a6257600080fd5b50565b600081359050612a7481612a4e565b92915050565b60008060408385031215612a9157612a906129dc565b5b6000612a9f85828601612a2f565b9250506020612ab085828601612a65565b9150509250929050565b60008115159050919050565b612acf81612aba565b82525050565b6000602082019050612aea6000830184612ac6565b92915050565b600060208284031215612b0657612b056129dc565b5b6000612b1484828501612a2f565b91505092915050565b612b2681612a44565b82525050565b6000602082019050612b416000830184612b1d565b92915050565b600080600060608486031215612b6057612b5f6129dc565b5b6000612b6e86828701612a2f565b9350506020612b7f86828701612a2f565b9250506040612b9086828701612a65565b9150509250925092565b600060ff82169050919050565b612bb081612b9a565b82525050565b6000602082019050612bcb6000830184612ba7565b92915050565b600080fd5b600080fd5b7f4e487b7100000000000000000000000000000000000000000000000000000000600052604160045260246000fd5b612c1382612966565b810181811067ffffffffffffffff82111715612c3257612c31612bdb565b5b80604052505050565b6000612c456129d2565b9050612c518282612c0a565b919050565b600067ffffffffffffffff821115612c7157612c70612bdb565b5b612c7a82612966565b9050602081019050919050565b82818337600083830152505050565b6000612ca9612ca484612c56565b612c3b565b905082815260208101848484011115612cc557612cc4612bd6565b5b612cd0848285612c87565b509392505050565b600082601f830112612ced57612cec612bd1565b5b8135612cfd848260208601612c96565b91505092915050565b600060208284031215612d1c57612d1b6129dc565b5b600082013567ffffffffffffffff811115612d3a57612d396129e1565b5b612d4684828501612cd8565b91505092915050565b600081519050919050565b600082825260208201905092915050565b6000819050602082019050919050565b612d8481612a06565b82525050565b600082825260208201905092915050565b6000612da682612920565b612db08185612d8a565b9350612dc081856020860161293c565b612dc981612966565b840191505092915050565b600081519050919050565b600082825260208201905092915050565b6000819050602082019050919050565b6000612e0c8383612d9b565b905092915050565b6000602082019050919050565b6000612e2c82612dd4565b612e368185612ddf565b935083602082028501612e4885612df0565b8060005b85811015612e845784840389528151612e658582612e00565b9450612e7083612e14565b925060208a01995050600181019050612e4c565b50829750879550505050505092915050565b612e9f81612aba565b82525050565b612eae81612a44565b82525050565b600081519050919050565b600082825260208201905092915050565b6000819050602082019050919050565b6000612eec8383612d7b565b60208301905092915050565b6000602082019050919050565b6000612f1082612eb4565b612f1a8185612ebf565b9350612f2583612ed0565b8060005b83811015612f56578151612f3d8882612ee0565b9750612f4883612ef8565b925050600181019050612f29565b5085935050505092915050565b600061012083016000830151612f7c6000860182612d7b565b5060208301518482036020860152612f948282612d9b565b91505060408301518482036040860152612fae8282612d9b565b91505060608301518482036060860152612fc88282612e21565b9150506080830151612fdd6080860182612e96565b5060a0830151612ff060a0860182612ea5565b5060c083015161300360c0860182612ea5565b5060e083015184820360e086015261301b8282612f05565b915050610100830151613032610100860182612e96565b508091505092915050565b60006130498383612f63565b905092915050565b6000602082019050919050565b600061306982612d4f565b6130738185612d5a565b93508360208202850161308585612d6b565b8060005b858110156130c157848403895281516130a2858261303d565b94506130ad83613051565b925060208a01995050600181019050613089565b50829750879550505050505092915050565b600060208201905081810360008301526130ed818461305e565b905092915050565b600082825260208201905092915050565b600061311182612eb4565b61311b81856130f5565b935061312683612ed0565b8060005b8381101561315757815161313e8882612ee0565b975061314983612ef8565b92505060018101905061312a565b5085935050505092915050565b6000602082019050818103600083015261317e8184613106565b905092915050565b61318f81612a06565b82525050565b600060e0820190506131aa600083018a613186565b81810360208301526131bc8189612977565b905081810360408301526131d08188612977565b90506131df6060830187612ac6565b6131ec6080830186612b1d565b6131f960a0830185612b1d565b61320660c0830184612ac6565b98975050505050505050565b60006020820190506132276000830184613186565b92915050565b6000610120830160008301516132466000860182612d7b565b506020830151848203602086015261325e8282612d9b565b915050604083015184820360408601526132788282612d9b565b915050606083015184820360608601526132928282612e21565b91505060808301516132a76080860182612e96565b5060a08301516132ba60a0860182612ea5565b5060c08301516132cd60c0860182612ea5565b5060e083015184820360e08601526132e58282612f05565b9150506101008301516132fc610100860182612e96565b508091505092915050565b60006020820190508181036000830152613321818461322d565b905092915050565b600067ffffffffffffffff82111561334457613343612bdb565b5b602082029050602081019050919050565b600080fd5b600061336d61336884613329565b612c3b565b905080838252602082019050602084028301858111156133905761338f613355565b5b835b818110156133d757803567ffffffffffffffff8111156133b5576133b4612bd1565b5b8086016133c28982612cd8565b85526020850194505050602081019050613392565b5050509392505050565b600082601f8301126133f6576133f5612bd1565b5b813561340684826020860161335a565b91505092915050565b61341881612aba565b811461342357600080fd5b50565b6000813590506134358161340f565b92915050565b600067ffffffffffffffff82111561345657613455612bdb565b5b602082029050602081019050919050565b600061347a6134758461343b565b612c3b565b9050808382526020820190506020840283018581111561349d5761349c613355565b5b835b818110156134c657806134b28882612a2f565b84526020840193505060208101905061349f565b5050509392505050565b600082601f8301126134e5576134e4612bd1565b5b81356134f5848260208601613467565b91505092915050565b600080600080600080600080610100898b03121561351f5761351e6129dc565b5b600089013567ffffffffffffffff81111561353d5761353c6129e1565b5b6135498b828c01612cd8565b985050602089013567ffffffffffffffff81111561356a576135696129e1565b5b6135768b828c01612cd8565b975050604089013567ffffffffffffffff811115613597576135966129e1565b5b6135a38b828c016133e1565b96505060606135b48b828c01613426565b95505060806135c58b828c01612a65565b94505060a06135d68b828c01612a65565b93505060c089013567ffffffffffffffff8111156135f7576135f66129e1565b5b6136038b828c016134d0565b92505060e06136148b828c01613426565b9150509295985092959890939650565b60408201600082015161363a6000850182612d7b565b50602082015161364d6020850182612ea5565b50505050565b60006040820190506136686000830184613624565b92915050565b60008060408385031215613685576136846129dc565b5b600061369385828601612a2f565b92505060206136a485828601612a2f565b9150509250929050565b6000602082840312156136c4576136c36129dc565b5b60006136d284828501612a65565b91505092915050565b7f4e487b7100000000000000000000000000000000000000000000000000000000600052602260045260246000fd5b6000600282049050600182168061372257607f821691505b602082108103613735576137346136db565b5b50919050565b600081905092915050565b600061375182612920565b61375b818561373b565b935061376b81856020860161293c565b80840191505092915050565b60006137838284613746565b915081905092915050565b7f4e487b7100000000000000000000000000000000000000000000000000000000600052603260045260246000fd5b7f41727469636c65206e6f7420666f756e642e0000000000000000000000000000600082015250565b60006137f360128361292b565b91506137fe826137bd565b602082019050919050565b60006020820190508181036000830152613822816137e6565b9050919050565b7f496e73756666696369656e74204554482e000000000000000000000000000000600082015250565b600061385f60118361292b565b915061386a82613829565b602082019050919050565b6000602082019050818103600083015261388e81613852565b9050919050565b7f4e6f7420656e6f75676820746f6b656e732e0000000000000000000000000000600082015250565b60006138cb60128361292b565b91506138d682613895565b602082019050919050565b600060208201905081810360008301526138fa816138be565b9050919050565b7f4e487b7100000000000000000000000000000000000000000000000000000000600052601160045260246000fd5b600061393b82612a44565b915061394683612a44565b925082820190508082111561395e5761395d613901565b5b92915050565b600061396f82612a44565b915061397a83612a44565b925082820390508181111561399257613991613901565b5b92915050565b60006040820190506139ad6000830185612b1d565b6139ba6020830184612b1d565b9392505050565b60008190508160005260206000209050919050565b60006020601f8301049050919050565b600082821b905092915050565b600060088302613a237fffffffffffffffffffffffffffffffffffffffffffffffffffffffffffffffff826139e6565b613a2d86836139e6565b95508019841693508086168417925050509392505050565b6000819050919050565b6000613a6a613a65613a6084612a44565b613a45565b612a44565b9050919050565b6000819050919050565b613a8483613a4f565b613a98613a9082613a71565b8484546139f3565b825550505050565b600090565b613aad613aa0565b613ab8818484613a7b565b505050565b5b81811015613adc57613ad1600082613aa5565b600181019050613abe565b5050565b601f821115613b2157613af2816139c1565b613afb846139d6565b81016020851015613b0a578190505b613b1e613b16856139d6565b830182613abd565b50505b505050565b600082821c905092915050565b6000613b4460001984600802613b26565b1980831691505092915050565b6000613b5d8383613b33565b9150826002028217905092915050565b613b7682612920565b67ffffffffffffffff811115613b8f57613b8e612bdb565b5b613b99825461370a565b613ba4828285613ae0565b600060209050601f831160018114613bd75760008415613bc5578287015190505b613bcf8582613b51565b865550613c37565b601f198416613be5866139c1565b60005b82811015613c0d57848901518255600182019150602085019450602081019050613be8565b86831015613c2a5784890151613c26601f891682613b33565b8355505b6001600288020188555050505b505050505050565b600082825260208201905092915050565b6000613c5b82612dd4565b613c658185613c3f565b935083602082028501613c7785612df0565b8060005b85811015613cb35784840389528151613c948582612e00565b9450613c9f83612e14565b925060208a01995050600181019050613c7b565b50829750879550505050505092915050565b60006060820190508181036000830152613cdf8186612977565b90508181036020830152613cf38185612977565b90508181036040830152613d078184613c50565b9050949350505050565b6000606082019050613d266000830186613186565b613d336020830185612b1d565b613d406040830184612b1d565b94935050505056fea264697066735822122083db93f6b4b75a1363fd1e44249a5069125c5fa9c2e306b84be9e7ebdbb65e4d64736f6c634300081c0033",
  "linkReferences": {},
  "deployedLinkReferences": {}
}